{
  "_format": "hh-sol-artifact-1",
  "contractName": "Transactions",
  "sourceName": "contracts/Transactions.sol",
  "abi": [
    {
      "inputs": [],
      "stateMutability": "nonpayable",
      "type": "constructor"
    },
    {
      "stateMutability": "payable",
      "type": "fallback"
    },
    {
      "inputs": [],
      "name": "contractOwner",
      "outputs": [
        {
          "internalType": "address",
          "name": "",
          "type": "address"
        }
      ],
      "stateMutability": "view",
      "type": "function"
    },
    {
      "inputs": [
        {
          "internalType": "address",
          "name": "payee",
          "type": "address"
        },
        {
          "internalType": "address",
          "name": "owner",
          "type": "address"
        },
        {
          "internalType": "uint256",
          "name": "amount",
          "type": "uint256"
        }
      ],
      "name": "deposit",
      "outputs": [],
      "stateMutability": "payable",
      "type": "function"
    },
    {
      "inputs": [
        {
          "internalType": "address",
          "name": "",
          "type": "address"
        }
      ],
      "name": "deposits",
      "outputs": [
        {
          "internalType": "uint256",
          "name": "",
          "type": "uint256"
        }
      ],
      "stateMutability": "view",
      "type": "function"
    },
    {
      "inputs": [],
      "name": "fund",
      "outputs": [],
      "stateMutability": "payable",
      "type": "function"
    },
    {
      "inputs": [
        {
          "internalType": "address",
          "name": "payee",
          "type": "address"
        },
        {
          "internalType": "address",
          "name": "owner",
          "type": "address"
        }
      ],
      "name": "transact",
      "outputs": [],
      "stateMutability": "payable",
      "type": "function"
    },
    {
      "inputs": [
        {
          "internalType": "address",
          "name": "",
          "type": "address"
        }
      ],
      "name": "wid",
      "outputs": [
        {
          "internalType": "uint256",
          "name": "",
          "type": "uint256"
        }
      ],
      "stateMutability": "view",
      "type": "function"
    },
    {
      "inputs": [
        {
          "internalType": "address",
          "name": "payee",
          "type": "address"
        },
        {
          "internalType": "address",
          "name": "owner",
          "type": "address"
        }
      ],
      "name": "withdraw",
      "outputs": [],
      "stateMutability": "nonpayable",
      "type": "function"
    },
    {
      "stateMutability": "payable",
      "type": "receive"
    }
  ],
  "bytecode": "0x608060405234801561001057600080fd5b50336000806101000a81548173ffffffffffffffffffffffffffffffffffffffff021916908373ffffffffffffffffffffffffffffffffffffffff16021790555060018081905550610994806100676000396000f3fe6080604052600436106100745760003560e01c8063d531322c1161004e578063d531322c146100de578063f940e385146100fa578063fb1f75a414610123578063fc7e286d1461016057610083565b80638340f5491461008d578063b60d4288146100a9578063ce606ee0146100b357610083565b366100835761008161019d565b005b61008b61019d565b005b6100a760048036038101906100a29190610661565b610206565b005b6100b161019d565b005b3480156100bf57600080fd5b506100c8610350565b6040516100d591906106f1565b60405180910390f35b6100f860048036038101906100f39190610625565b610374565b005b34801561010657600080fd5b50610121600480360381019061011c9190610625565b61038d565b005b34801561012f57600080fd5b5061014a600480360381019061014591906105fc565b6105a2565b604051610157919061072c565b60405180910390f35b34801561016c57600080fd5b50610187600480360381019061018291906105fc565b6105ba565b604051610194919061072c565b60405180910390f35b60008054906101000a900473ffffffffffffffffffffffffffffffffffffffff1673ffffffffffffffffffffffffffffffffffffffff166108fc349081150290604051600060405180830381858888f19350505050158015610203573d6000803e3d6000fd5b50565b60006064600a8361021791906107df565b61022191906107ae565b90508082600260008773ffffffffffffffffffffffffffffffffffffffff1673ffffffffffffffffffffffffffffffffffffffff1681526020019081526020016000205461026f9190610758565b6102799190610839565b600260008673ffffffffffffffffffffffffffffffffffffffff1673ffffffffffffffffffffffffffffffffffffffff1681526020019081526020016000208190555080600360008573ffffffffffffffffffffffffffffffffffffffff1673ffffffffffffffffffffffffffffffffffffffff168152602001908152602001600020546103079190610758565b600360008573ffffffffffffffffffffffffffffffffffffffff1673ffffffffffffffffffffffffffffffffffffffff1681526020019081526020016000208190555050505050565b60008054906101000a900473ffffffffffffffffffffffffffffffffffffffff1681565b61037f828234610206565b610389828261038d565b5050565b600260015414156103d3576040517f08c379a00000000000000000000000000000000000000000000000000000000081526004016103ca9061070c565b60405180910390fd5b60026001819055506000600260008473ffffffffffffffffffffffffffffffffffffffff1673ffffffffffffffffffffffffffffffffffffffff1681526020019081526020016000205490506000600360008473ffffffffffffffffffffffffffffffffffffffff1673ffffffffffffffffffffffffffffffffffffffff1681526020019081526020016000205490506000821161047057600080fd5b6000811161047d57600080fd5b6000600260008673ffffffffffffffffffffffffffffffffffffffff1673ffffffffffffffffffffffffffffffffffffffff168152602001908152602001600020819055508373ffffffffffffffffffffffffffffffffffffffff166108fc839081150290604051600060405180830381858888f19350505050158015610508573d6000803e3d6000fd5b506000600360008573ffffffffffffffffffffffffffffffffffffffff1673ffffffffffffffffffffffffffffffffffffffff168152602001908152602001600020819055508273ffffffffffffffffffffffffffffffffffffffff166108fc829081150290604051600060405180830381858888f19350505050158015610594573d6000803e3d6000fd5b505050600180819055505050565b60036020528060005260406000206000915090505481565b60026020528060005260406000206000915090505481565b6000813590506105e181610930565b92915050565b6000813590506105f681610947565b92915050565b60006020828403121561060e57600080fd5b600061061c848285016105d2565b91505092915050565b6000806040838503121561063857600080fd5b6000610646858286016105d2565b9250506020610657858286016105d2565b9150509250929050565b60008060006060848603121561067657600080fd5b6000610684868287016105d2565b9350506020610695868287016105d2565b92505060406106a6868287016105e7565b9150509250925092565b6106b98161086d565b82525050565b60006106cc601f83610747565b91506106d782610907565b602082019050919050565b6106eb8161089f565b82525050565b600060208201905061070660008301846106b0565b92915050565b60006020820190508181036000830152610725816106bf565b9050919050565b600060208201905061074160008301846106e2565b92915050565b600082825260208201905092915050565b60006107638261089f565b915061076e8361089f565b9250827fffffffffffffffffffffffffffffffffffffffffffffffffffffffffffffffff038211156107a3576107a26108a9565b5b828201905092915050565b60006107b98261089f565b91506107c48361089f565b9250826107d4576107d36108d8565b5b828204905092915050565b60006107ea8261089f565b91506107f58361089f565b9250817fffffffffffffffffffffffffffffffffffffffffffffffffffffffffffffffff048311821515161561082e5761082d6108a9565b5b828202905092915050565b60006108448261089f565b915061084f8361089f565b925082821015610862576108616108a9565b5b828203905092915050565b60006108788261087f565b9050919050565b600073ffffffffffffffffffffffffffffffffffffffff82169050919050565b6000819050919050565b7f4e487b7100000000000000000000000000000000000000000000000000000000600052601160045260246000fd5b7f4e487b7100000000000000000000000000000000000000000000000000000000600052601260045260246000fd5b7f5265656e7472616e637947756172643a207265656e7472616e742063616c6c00600082015250565b6109398161086d565b811461094457600080fd5b50565b6109508161089f565b811461095b57600080fd5b5056fea2646970667358221220403e12dedaae109e9f014202ac7541677804594236409fed90f703caac7267e964736f6c63430008040033",
  "linkReferences": {},
  "deployedLinkReferences": {}
}